{
  "address": "0xb7FF24B49b9a6acf8A31E5d3Adad74D71A606d88",
  "abi": [
    {
      "inputs": [
        {
          "internalType": "address",
          "name": "marketArg",
          "type": "address"
        },
        {
          "internalType": "address",
          "name": "wethArg",
          "type": "address"
        },
        {
          "internalType": "string",
          "name": "nativeTokenSymbol",
          "type": "string"
        }
      ],
      "stateMutability": "nonpayable",
      "type": "constructor"
    },
    {
      "anonymous": false,
      "inputs": [
        {
          "indexed": true,
          "internalType": "address",
          "name": "owner",
          "type": "address"
        },
        {
          "indexed": true,
          "internalType": "address",
          "name": "spender",
          "type": "address"
        },
        {
          "indexed": false,
          "internalType": "uint256",
          "name": "value",
          "type": "uint256"
        }
      ],
      "name": "Approval",
      "type": "event"
    },
    {
      "anonymous": false,
      "inputs": [
        {
          "indexed": true,
          "internalType": "address",
          "name": "caller",
          "type": "address"
        },
        {
          "indexed": true,
          "internalType": "address",
          "name": "owner",
          "type": "address"
        },
        {
          "indexed": false,
          "internalType": "uint256",
          "name": "assets",
          "type": "uint256"
        },
        {
          "indexed": false,
          "internalType": "uint256",
          "name": "shares",
          "type": "uint256"
        }
      ],
      "name": "Deposit",
      "type": "event"
    },
    {
      "anonymous": false,
      "inputs": [
        {
          "indexed": true,
          "internalType": "address",
          "name": "from",
          "type": "address"
        },
        {
          "indexed": true,
          "internalType": "address",
          "name": "to",
          "type": "address"
        },
        {
          "indexed": false,
          "internalType": "uint256",
          "name": "value",
          "type": "uint256"
        }
      ],
      "name": "Transfer",
      "type": "event"
    },
    {
      "anonymous": false,
      "inputs": [
        {
          "indexed": true,
          "internalType": "address",
          "name": "caller",
          "type": "address"
        },
        {
          "indexed": true,
          "internalType": "address",
          "name": "receiver",
          "type": "address"
        },
        {
          "indexed": true,
          "internalType": "address",
          "name": "owner",
          "type": "address"
        },
        {
          "indexed": false,
          "internalType": "uint256",
          "name": "assets",
          "type": "uint256"
        },
        {
          "indexed": false,
          "internalType": "uint256",
          "name": "shares",
          "type": "uint256"
        }
      ],
      "name": "Withdraw",
      "type": "event"
    },
    {
      "inputs": [
        {
          "internalType": "address",
          "name": "owner",
          "type": "address"
        },
        {
          "internalType": "address",
          "name": "spender",
          "type": "address"
        }
      ],
      "name": "allowance",
      "outputs": [
        {
          "internalType": "uint256",
          "name": "",
          "type": "uint256"
        }
      ],
      "stateMutability": "view",
      "type": "function"
    },
    {
      "inputs": [
        {
          "internalType": "address",
          "name": "spender",
          "type": "address"
        },
        {
          "internalType": "uint256",
          "name": "amount",
          "type": "uint256"
        }
      ],
      "name": "approve",
      "outputs": [
        {
          "internalType": "bool",
          "name": "",
          "type": "bool"
        }
      ],
      "stateMutability": "nonpayable",
      "type": "function"
    },
    {
      "inputs": [],
      "name": "asset",
      "outputs": [
        {
          "internalType": "address",
          "name": "",
          "type": "address"
        }
      ],
      "stateMutability": "view",
      "type": "function"
    },
    {
      "inputs": [
        {
          "internalType": "address",
          "name": "account",
          "type": "address"
        }
      ],
      "name": "balanceOf",
      "outputs": [
        {
          "internalType": "uint256",
          "name": "",
          "type": "uint256"
        }
      ],
      "stateMutability": "view",
      "type": "function"
    },
    {
      "inputs": [
        {
          "internalType": "uint256",
          "name": "shares",
          "type": "uint256"
        }
      ],
      "name": "convertToAssets",
      "outputs": [
        {
          "internalType": "uint256",
          "name": "assets",
          "type": "uint256"
        }
      ],
      "stateMutability": "view",
      "type": "function"
    },
    {
      "inputs": [
        {
          "internalType": "uint256",
          "name": "assets",
          "type": "uint256"
        }
      ],
      "name": "convertToShares",
      "outputs": [
        {
          "internalType": "uint256",
          "name": "shares",
          "type": "uint256"
        }
      ],
      "stateMutability": "view",
      "type": "function"
    },
    {
      "inputs": [],
      "name": "decimals",
      "outputs": [
        {
          "internalType": "uint8",
          "name": "",
          "type": "uint8"
        }
      ],
      "stateMutability": "view",
      "type": "function"
    },
    {
      "inputs": [
        {
          "internalType": "address",
          "name": "spender",
          "type": "address"
        },
        {
          "internalType": "uint256",
          "name": "subtractedValue",
          "type": "uint256"
        }
      ],
      "name": "decreaseAllowance",
      "outputs": [
        {
          "internalType": "bool",
          "name": "",
          "type": "bool"
        }
      ],
      "stateMutability": "nonpayable",
      "type": "function"
    },
    {
      "inputs": [
        {
          "internalType": "uint256",
          "name": "assets",
          "type": "uint256"
        },
        {
          "internalType": "address",
          "name": "receiver",
          "type": "address"
        }
      ],
      "name": "deposit",
      "outputs": [
        {
          "internalType": "uint256",
          "name": "shares",
          "type": "uint256"
        }
      ],
      "stateMutability": "nonpayable",
      "type": "function"
    },
    {
      "inputs": [
        {
          "internalType": "address",
          "name": "receiver",
          "type": "address"
        }
      ],
      "name": "depositETH",
      "outputs": [
        {
          "internalType": "uint256",
          "name": "",
          "type": "uint256"
        }
      ],
      "stateMutability": "payable",
      "type": "function"
    },
    {
      "inputs": [],
      "name": "exchange",
      "outputs": [
        {
          "internalType": "address",
          "name": "",
          "type": "address"
        }
      ],
      "stateMutability": "view",
      "type": "function"
    },
    {
      "inputs": [
        {
          "internalType": "address",
          "name": "spender",
          "type": "address"
        },
        {
          "internalType": "uint256",
          "name": "addedValue",
          "type": "uint256"
        }
      ],
      "name": "increaseAllowance",
      "outputs": [
        {
          "internalType": "bool",
          "name": "",
          "type": "bool"
        }
      ],
      "stateMutability": "nonpayable",
      "type": "function"
    },
    {
      "inputs": [],
      "name": "market",
      "outputs": [
        {
          "internalType": "address",
          "name": "",
          "type": "address"
        }
      ],
      "stateMutability": "view",
      "type": "function"
    },
    {
      "inputs": [
        {
          "internalType": "address",
          "name": "",
          "type": "address"
        }
      ],
      "name": "maxDeposit",
      "outputs": [
        {
          "internalType": "uint256",
          "name": "maxAssets",
          "type": "uint256"
        }
      ],
      "stateMutability": "view",
      "type": "function"
    },
    {
      "inputs": [
        {
          "internalType": "address",
          "name": "",
          "type": "address"
        }
      ],
      "name": "maxMint",
      "outputs": [
        {
          "internalType": "uint256",
          "name": "maxShares",
          "type": "uint256"
        }
      ],
      "stateMutability": "view",
      "type": "function"
    },
    {
      "inputs": [
        {
          "internalType": "address",
          "name": "owner",
          "type": "address"
        }
      ],
      "name": "maxRedeem",
      "outputs": [
        {
          "internalType": "uint256",
          "name": "maxShares",
          "type": "uint256"
        }
      ],
      "stateMutability": "view",
      "type": "function"
    },
    {
      "inputs": [
        {
          "internalType": "address",
          "name": "owner",
          "type": "address"
        }
      ],
      "name": "maxWithdraw",
      "outputs": [
        {
          "internalType": "uint256",
          "name": "maxAssets",
          "type": "uint256"
        }
      ],
      "stateMutability": "view",
      "type": "function"
    },
    {
      "inputs": [
        {
          "internalType": "uint256",
          "name": "shares",
          "type": "uint256"
        },
        {
          "internalType": "address",
          "name": "receiver",
          "type": "address"
        }
      ],
      "name": "mint",
      "outputs": [
        {
          "internalType": "uint256",
          "name": "assets",
          "type": "uint256"
        }
      ],
      "stateMutability": "nonpayable",
      "type": "function"
    },
    {
      "inputs": [
        {
          "internalType": "uint256",
          "name": "shares",
          "type": "uint256"
        },
        {
          "internalType": "address",
          "name": "receiver",
          "type": "address"
        }
      ],
      "name": "mintETH",
      "outputs": [
        {
          "internalType": "uint256",
          "name": "assets",
          "type": "uint256"
        }
      ],
      "stateMutability": "payable",
      "type": "function"
    },
    {
      "inputs": [],
      "name": "name",
      "outputs": [
        {
          "internalType": "string",
          "name": "",
          "type": "string"
        }
      ],
      "stateMutability": "view",
      "type": "function"
    },
    {
      "inputs": [
        {
          "internalType": "uint256",
          "name": "assets",
          "type": "uint256"
        }
      ],
      "name": "previewDeposit",
      "outputs": [
        {
          "internalType": "uint256",
          "name": "shares",
          "type": "uint256"
        }
      ],
      "stateMutability": "view",
      "type": "function"
    },
    {
      "inputs": [
        {
          "internalType": "uint256",
          "name": "shares",
          "type": "uint256"
        }
      ],
      "name": "previewMint",
      "outputs": [
        {
          "internalType": "uint256",
          "name": "assets",
          "type": "uint256"
        }
      ],
      "stateMutability": "view",
      "type": "function"
    },
    {
      "inputs": [
        {
          "internalType": "uint256",
          "name": "shares",
          "type": "uint256"
        }
      ],
      "name": "previewRedeem",
      "outputs": [
        {
          "internalType": "uint256",
          "name": "assets",
          "type": "uint256"
        }
      ],
      "stateMutability": "view",
      "type": "function"
    },
    {
      "inputs": [
        {
          "internalType": "uint256",
          "name": "assets",
          "type": "uint256"
        }
      ],
      "name": "previewWithdraw",
      "outputs": [
        {
          "internalType": "uint256",
          "name": "shares",
          "type": "uint256"
        }
      ],
      "stateMutability": "view",
      "type": "function"
    },
    {
      "inputs": [
        {
          "internalType": "uint256",
          "name": "shares",
          "type": "uint256"
        },
        {
          "internalType": "address",
          "name": "receiver",
          "type": "address"
        },
        {
          "internalType": "address",
          "name": "owner",
          "type": "address"
        }
      ],
      "name": "redeem",
      "outputs": [
        {
          "internalType": "uint256",
          "name": "assets",
          "type": "uint256"
        }
      ],
      "stateMutability": "nonpayable",
      "type": "function"
    },
    {
      "inputs": [
        {
          "internalType": "uint256",
          "name": "shares",
          "type": "uint256"
        },
        {
          "internalType": "address payable",
          "name": "receiver",
          "type": "address"
        },
        {
          "internalType": "address",
          "name": "owner",
          "type": "address"
        }
      ],
      "name": "redeemETH",
      "outputs": [
        {
          "internalType": "uint256",
          "name": "assets",
          "type": "uint256"
        }
      ],
      "stateMutability": "nonpayable",
      "type": "function"
    },
    {
      "inputs": [],
      "name": "symbol",
      "outputs": [
        {
          "internalType": "string",
          "name": "",
          "type": "string"
        }
      ],
      "stateMutability": "view",
      "type": "function"
    },
    {
      "inputs": [],
      "name": "totalAssets",
      "outputs": [
        {
          "internalType": "uint256",
          "name": "totalManagedAssets",
          "type": "uint256"
        }
      ],
      "stateMutability": "view",
      "type": "function"
    },
    {
      "inputs": [],
      "name": "totalSupply",
      "outputs": [
        {
          "internalType": "uint256",
          "name": "",
          "type": "uint256"
        }
      ],
      "stateMutability": "view",
      "type": "function"
    },
    {
      "inputs": [
        {
          "internalType": "address",
          "name": "recipient",
          "type": "address"
        },
        {
          "internalType": "uint256",
          "name": "amount",
          "type": "uint256"
        }
      ],
      "name": "transfer",
      "outputs": [
        {
          "internalType": "bool",
          "name": "",
          "type": "bool"
        }
      ],
      "stateMutability": "nonpayable",
      "type": "function"
    },
    {
      "inputs": [
        {
          "internalType": "address",
          "name": "sender",
          "type": "address"
        },
        {
          "internalType": "address",
          "name": "recipient",
          "type": "address"
        },
        {
          "internalType": "uint256",
          "name": "amount",
          "type": "uint256"
        }
      ],
      "name": "transferFrom",
      "outputs": [
        {
          "internalType": "bool",
          "name": "",
          "type": "bool"
        }
      ],
      "stateMutability": "nonpayable",
      "type": "function"
    },
    {
      "inputs": [],
      "name": "weth",
      "outputs": [
        {
          "internalType": "address",
          "name": "",
          "type": "address"
        }
      ],
      "stateMutability": "view",
      "type": "function"
    },
    {
      "inputs": [
        {
          "internalType": "uint256",
          "name": "assets",
          "type": "uint256"
        },
        {
          "internalType": "address",
          "name": "receiver",
          "type": "address"
        },
        {
          "internalType": "address",
          "name": "owner",
          "type": "address"
        }
      ],
      "name": "withdraw",
      "outputs": [
        {
          "internalType": "uint256",
          "name": "shares",
          "type": "uint256"
        }
      ],
      "stateMutability": "nonpayable",
      "type": "function"
    },
    {
      "inputs": [
        {
          "internalType": "uint256",
          "name": "assets",
          "type": "uint256"
        },
        {
          "internalType": "address payable",
          "name": "receiver",
          "type": "address"
        },
        {
          "internalType": "address",
          "name": "owner",
          "type": "address"
        }
      ],
      "name": "withdrawETH",
      "outputs": [
        {
          "internalType": "uint256",
          "name": "shares",
          "type": "uint256"
        }
      ],
      "stateMutability": "nonpayable",
      "type": "function"
    },
    {
      "stateMutability": "payable",
      "type": "receive"
    }
  ],
  "transactionHash": "0xd809dc20f6bc0963bae71cbfa5d037a51c39591ffbc1d167d5bfc4e5d992db7f",
  "args": [
    "0x293100BfBEd680f0Ec36dc9016A044447e48Da97",
    "0x9Af480478974a2fda7d5aE667541639164D2858B",
    "ASTR"
  ],
  "numDeployments": 2,
  "solcInputHash": "e3aea09155e809df0e579919e176ce22",
  "bytecode": "0x6101006040523480156200001257600080fd5b5060405162003834380380620038348339810160408190526200003591620006af565b826040518060400160405280600d81526020016c02832b9382222ac102637b7339609d1b815250604051806040016040528060028152602001611c1b60f21b81525083856200008c8585846200032260201b60201c565b6200009986858562000322565b60016000558151620000b390600490602085019062000549565b508051620000c990600590602084019062000549565b50506006805460ff19166012179055506040805163697b932d60e11b815290516000916001600160a01b0388169163d2f7265a91600480820192602092909190829003018186803b1580156200011e57600080fd5b505afa15801562000133573d6000803e3d6000fd5b505050506040513d601f19601f820116820180604052508101906200015991906200068b565b90506000816001600160a01b0316637b9e618d6040518163ffffffff1660e01b815260040160206040518083038186803b1580156200019757600080fd5b505afa158015620001ac573d6000803e3d6000fd5b505050506040513d601f19601f82011682018060405250810190620001d291906200068b565b90506000601260ff16836001600160a01b0316633fd1e2bd6040518163ffffffff1660e01b815260040160206040518083038186803b1580156200021557600080fd5b505afa1580156200022a573d6000803e3d6000fd5b505050506040513d601f19601f8201168201806040525081019062000250919062000751565b60ff16146200027c5760405162461bcd60e51b815260040162000273906200082b565b60405180910390fd5b6001600160a01b038216620002bc576001600160a01b038416620002b45760405162461bcd60e51b81526004016200027390620007f4565b5082620002e9565b6001600160a01b03841615620002e65760405162461bcd60e51b81526004016200027390620007bd565b50805b6001600160601b0319606091821b811660805297811b881660a05292831b871660e05250901b90931660c0525062000895945050505050565b60606000846001600160a01b031663d2f7265a6040518163ffffffff1660e01b815260040160206040518083038186803b1580156200036057600080fd5b505afa15801562000375573d6000803e3d6000fd5b505050506040513d601f19601f820116820180604052508101906200039b91906200068b565b6001600160a01b0316637b9e618d6040518163ffffffff1660e01b815260040160206040518083038186803b158015620003d457600080fd5b505afa158015620003e9573d6000803e3d6000fd5b505050506040513d601f19601f820116820180604052508101906200040f91906200068b565b905083856001600160a01b03166395d89b416040518163ffffffff1660e01b815260040160006040518083038186803b1580156200044c57600080fd5b505afa15801562000461573d6000803e3d6000fd5b505050506040513d6000823e601f3d908101601f191682016040526200048b919081019062000713565b6001600160a01b038316156200051a57826001600160a01b03166395d89b416040518163ffffffff1660e01b815260040160006040518083038186803b158015620004d557600080fd5b505afa158015620004ea573d6000803e3d6000fd5b505050506040513d6000823e601f3d908101601f1916820160405262000514919081019062000713565b6200051c565b845b604051602001620005309392919062000774565b6040516020818303038152906040529150509392505050565b828054600181600116156101000203166002900490600052602060002090601f016020900481019282620005815760008555620005cc565b82601f106200059c57805160ff1916838001178555620005cc565b82800160010185558215620005cc579182015b82811115620005cc578251825591602001919060010190620005af565b50620005da929150620005de565b5090565b5b80821115620005da5760008155600101620005df565b80516001600160a01b03811681146200060d57600080fd5b919050565b600082601f83011262000623578081fd5b81516001600160401b03808211156200063857fe5b604051601f8301601f1916810160200182811182821017156200065757fe5b6040528281528483016020018610156200066f578384fd5b6200068283602083016020880162000862565b95945050505050565b6000602082840312156200069d578081fd5b620006a882620005f5565b9392505050565b600080600060608486031215620006c4578182fd5b620006cf84620005f5565b9250620006df60208501620005f5565b60408501519092506001600160401b03811115620006fb578182fd5b620007098682870162000612565b9150509250925092565b60006020828403121562000725578081fd5b81516001600160401b038111156200073b578182fd5b620007498482850162000612565b949350505050565b60006020828403121562000763578081fd5b815160ff81168114620006a8578182fd5b600084516200078881846020890162000862565b8451908301906200079e81836020890162000862565b8451910190620007b381836020880162000862565b0195945050505050565b6020808252601b908201527f5054425f433a20776574682063616e206e6f7420626520757365640000000000604082015260600190565b60208082526017908201527f5054425f433a2077657468206973207265717569726564000000000000000000604082015260600190565b60208082526017908201527f5054425f433a20696e76616c696420646563696d616c73000000000000000000604082015260600190565b60005b838110156200087f57818101518382015260200162000865565b838111156200088f576000848401525b50505050565b60805160601c60a05160601c60c05160601c60e05160601c612ecc62000968600039806109335280610a5b5280610a9c5280610b90528061109952806118be52806119025280611a825280611ab152806120fb52508061061b528061118f528061138f528061167052806117125280611c0f528061216b52806122015280612284528061258652508061078c5280610cec5280610fb052806113d85280611622528061175b5280611c585250806109e0528061121252806118955280611b295280611b63528061213e5250612ecc6000f3fe6080604052600436106101fd5760003560e01c806370a082311161010d578063ba087652116100a0578063cfc13da61161006f578063cfc13da61461058e578063d2f7265a146105a1578063d905777e146105b6578063dd62ed3e146105d6578063ef8b30f7146105f657610204565b8063ba0876521461050e578063c63d75b61461052e578063c6e6f5921461054e578063ce96cb771461056e57610204565b8063a457c2d7116100dc578063a457c2d71461048e578063a9059cbb146104ae578063b3d7f6b9146104ce578063b460af94146104ee57610204565b806370a082311461042457806380f556051461044457806394bf804d1461045957806395d89b411461047957610204565b8063313ce56711610190578063402d267d1161015f578063402d267d146103845780634cdad506146103a457806367da598e146103c45780636b6f5133146103e45780636e553f651461040457610204565b8063313ce5671461030b57806338d52e0f1461032d578063395093511461034f5780633fc8cef31461036f57610204565b80630a28a477116101cc5780630a28a477146102a357806318160ddd146102c357806323b872dd146102d85780632d2da806146102f857610204565b806301e1d1141461020957806306fdde031461023457806307a2d13a14610256578063095ea7b31461027657610204565b3661020457005b600080fd5b34801561021557600080fd5b5061021e610616565b60405161022b9190612ac4565b60405180910390f35b34801561024057600080fd5b506102496106d6565b60405161022b9190612acd565b34801561026257600080fd5b5061021e6102713660046129ee565b61076c565b34801561028257600080fd5b5061029661029136600461298b565b610848565b60405161022b9190612ab9565b3480156102af57600080fd5b5061021e6102be3660046129ee565b6108ad565b3480156102cf57600080fd5b5061021e6108c2565b3480156102e457600080fd5b506102966102f336600461294b565b6108c8565b61021e6103063660046128f7565b61092f565b34801561031757600080fd5b506103206109d5565b60405161022b9190612ce5565b34801561033957600080fd5b506103426109de565b60405161022b9190612a8c565b34801561035b57600080fd5b5061029661036a36600461298b565b610a02565b34801561037b57600080fd5b50610342610a59565b34801561039057600080fd5b5061021e61039f3660046128f7565b610a7d565b3480156103b057600080fd5b5061021e6103bf3660046129ee565b610a8a565b3480156103d057600080fd5b5061021e6103df366004612a2a565b610a98565b3480156103f057600080fd5b5061021e6103ff366004612a2a565b610b8c565b34801561041057600080fd5b5061021e61041f366004612a06565b610c6f565b34801561043057600080fd5b5061021e61043f3660046128f7565b610ccf565b34801561045057600080fd5b50610342610cea565b34801561046557600080fd5b5061021e610474366004612a06565b610d0e565b34801561048557600080fd5b50610249610d7a565b34801561049a57600080fd5b506102966104a936600461298b565b610ddb565b3480156104ba57600080fd5b506102966104c936600461298b565b610e32565b3480156104da57600080fd5b5061021e6104e93660046129ee565b610e89565b3480156104fa57600080fd5b5061021e610509366004612a2a565b610e97565b34801561051a57600080fd5b5061021e610529366004612a2a565b610f0c565b34801561053a57600080fd5b5061021e6105493660046128f7565b610f7d565b34801561055a57600080fd5b5061021e6105693660046129ee565b610f8b565b34801561057a57600080fd5b5061021e6105893660046128f7565b611051565b61021e61059c366004612a06565b611095565b3480156105ad57600080fd5b5061034261118d565b3480156105c257600080fd5b5061021e6105d13660046128f7565b6111b1565b3480156105e257600080fd5b5061021e6105f1366004612913565b6111d0565b34801561060257600080fd5b5061021e6106113660046129ee565b6111fb565b6000807f00000000000000000000000000000000000000000000000000000000000000006001600160a01b0316630674fa41306040518263ffffffff1660e01b81526004016106659190612a8c565b60206040518083038186803b15801561067d57600080fd5b505afa158015610691573d6000803e3d6000fd5b505050506040513d601f19601f820116820180604052508101906106b591906129d6565b9050600081126106cd576106c88161120a565b6106d0565b60005b91505090565b60048054604080516020601f60026000196101006001881615020190951694909404938401819004810282018101909252828152606093909290918301828280156107625780601f1061073757610100808354040283529160200191610762565b820191906000526020600020905b81548152906001019060200180831161074557829003601f168201915b5050505050905090565b6000806107776108c2565b90508061082d5761082561078a8461120a565b7f00000000000000000000000000000000000000000000000000000000000000006001600160a01b0316638ee8fe5d6040518163ffffffff1660e01b815260040160206040518083038186803b1580156107e357600080fd5b505afa1580156107f7573d6000803e3d6000fd5b505050506040513d601f19601f8201168201806040525081019061081b91906129d6565b600160601b6112b1565b915050610843565b61083f83610839610616565b836112b1565b9150505b919050565b600060026000541415610890576040805162461bcd60e51b815260206004820152601f6024820152600080516020612d2c833981519152604482015290519081900360640190fd5b600260005561089f8383611361565b90505b600160005592915050565b60006108bc600160008461137e565b92915050565b60035490565b600060026000541415610910576040805162461bcd60e51b815260206004820152601f6024820152600080516020612d2c833981519152604482015290519081900360640190fd5b60026000556109208484846114be565b90505b60016000559392505050565b60007f00000000000000000000000000000000000000000000000000000000000000006001600160a01b03166109805760405162461bcd60e51b815260040161097790612b20565b60405180910390fd5b600260005414156109c6576040805162461bcd60e51b815260206004820152601f6024820152600080516020612d2c833981519152604482015290519081900360640190fd5b60026000556108a23483611545565b60065460ff1690565b7f000000000000000000000000000000000000000000000000000000000000000081565b600060026000541415610a4a576040805162461bcd60e51b815260206004820152601f6024820152600080516020612d2c833981519152604482015290519081900360640190fd5b600260005561089f83836115bc565b7f000000000000000000000000000000000000000000000000000000000000000081565b60006108bc60008061160a565b60006108bc6001808461137e565b60007f00000000000000000000000000000000000000000000000000000000000000006001600160a01b0316610ae05760405162461bcd60e51b815260040161097790612b20565b60026000541415610b26576040805162461bcd60e51b815260206004820152601f6024820152600080516020612d2c833981519152604482015290519081900360640190fd5b6002600081905550610b3b6001600086611701565b9050610b4982848387611803565b6040516001600160a01b0384169085156108fc029086906000818181858888f19350505050158015610b7f573d6000803e3d6000fd5b5060016000559392505050565b60007f00000000000000000000000000000000000000000000000000000000000000006001600160a01b0316610bd45760405162461bcd60e51b815260040161097790612b20565b60026000541415610c1a576040805162461bcd60e51b815260206004820152601f6024820152600080516020612d2c833981519152604482015290519081900360640190fd5b6002600055610c2b60018086611701565b9050610c3982848684611803565b6040516001600160a01b0384169082156108fc029083906000818181858888f19350505050158015610b7f573d6000803e3d6000fd5b600060026000541415610cb7576040805162461bcd60e51b815260206004820152601f6024820152600080516020612d2c833981519152604482015290519081900360640190fd5b6002600055610cc58361188e565b61089f8383611545565b6001600160a01b031660009081526001602052604090205490565b7f000000000000000000000000000000000000000000000000000000000000000081565b600060026000541415610d56576040805162461bcd60e51b815260206004820152601f6024820152600080516020612d2c833981519152604482015290519081900360640190fd5b6002600055610d6483610e89565b9050610d6f8161188e565b6108a281848461196f565b60058054604080516020601f60026000196101006001881615020190951694909404938401819004810282018101909252828152606093909290918301828280156107625780601f1061073757610100808354040283529160200191610762565b600060026000541415610e23576040805162461bcd60e51b815260206004820152601f6024820152600080516020612d2c833981519152604482015290519081900360640190fd5b600260005561089f8383611a04565b600060026000541415610e7a576040805162461bcd60e51b815260206004820152601f6024820152600080516020612d2c833981519152604482015290519081900360640190fd5b600260005561089f8383611a6c565b60006108bc6000808461137e565b600060026000541415610edf576040805162461bcd60e51b815260206004820152601f6024820152600080516020612d2c833981519152604482015290519081900360640190fd5b6002600081905550610ef46001600086611701565b9050610f0282848387611803565b6109238385611a80565b600060026000541415610f54576040805162461bcd60e51b815260206004820152601f6024820152600080516020612d2c833981519152604482015290519081900360640190fd5b6002600055610f6560018086611701565b9050610f7382848684611803565b6109238382611a80565b60006108bc6000600161160a565b600080610f966108c2565b90508061104457610825610fa984611b53565b600160601b7f00000000000000000000000000000000000000000000000000000000000000006001600160a01b0316638ee8fe5d6040518163ffffffff1660e01b815260040160206040518083038186803b15801561100757600080fd5b505afa15801561101b573d6000803e3d6000fd5b505050506040513d601f19601f8201168201806040525081019061103f91906129d6565b6112b1565b61083f838261103f610616565b600061105e60018061160a565b905060008061107760018061107287610ccf565b611bfd565b91509150811561108e5761108b8382611d45565b92505b5050919050565b60007f00000000000000000000000000000000000000000000000000000000000000006001600160a01b03166110dd5760405162461bcd60e51b815260040161097790612b20565b60026000541415611123576040805162461bcd60e51b815260206004820152601f6024820152600080516020612d2c833981519152604482015290519081900360640190fd5b600260005561113183610e89565b9050600061113f3483611d5b565b9050801561117657604051339082156108fc029083906000818181858888f19350505050158015611174573d6000803e3d6000fd5b505b61118182858561196f565b50600160005592915050565b7f000000000000000000000000000000000000000000000000000000000000000081565b60006108bc6111bf83610ccf565b6111cb6001600061160a565b611d45565b6001600160a01b03918216600090815260026020908152604080832093909416825291909152205490565b60006108bc600060018461137e565b60006108bc827f00000000000000000000000000000000000000000000000000000000000000006001600160a01b031663313ce5676040518163ffffffff1660e01b815260040160206040518083038186803b15801561126957600080fd5b505afa15801561127d573d6000803e3d6000fd5b505050506040513d601f19601f820116820180604052508101906112a19190612a6b565b60ff16600a0a670de0b6b3a76400005b60008080600019858709868602925082811090839003039050806112e757600084116112dc57600080fd5b50829004905061135a565b8084116112f357600080fd5b6000848688096000868103871696879004966002600389028118808a02820302808a02820302808a02820302808a02820302808a02820302808a02909103029181900381900460010186841190950394909402919094039290920491909117919091029150505b9392505050565b600061137561136e611db8565b8484611dbc565b50600192915050565b600061138b848484611ea8565b91507f00000000000000000000000000000000000000000000000000000000000000006001600160a01b031663cffe85566040518060e00160405280306001600160a01b031681526020017f00000000000000000000000000000000000000000000000000000000000000006001600160a01b03168152602001306001600160a01b0316815260200187151581526020018615158152602001858152602001866114375760001961143a565b60005b8152506040518263ffffffff1660e01b81526004016114599190612c1f565b60206040518083038186803b15801561147157600080fd5b505afa158015611485573d6000803e3d6000fd5b505050506040513d601f19601f820116820180604052508101906114a991906129d6565b90506114b6848483611ee0565b949350505050565b60006114cb848484611f05565b61153b846114d7611db8565b61153685604051806060016040528060288152602001612db6602891396001600160a01b038a16600090815260026020526040812090611515611db8565b6001600160a01b031681526020810191909152604001600020549190612062565b611dbc565b5060019392505050565b6000611550836120f9565b61155d6000600185611701565b905061156982826122f2565b816001600160a01b0316336001600160a01b03167fdcbc1c05240f31ff3ad067ef1ee35ce4997762752e3a095284754544f4c709d785846040516115ae929190612cd7565b60405180910390a392915050565b60006113756115c9611db8565b8461153685600260006115da611db8565b6001600160a01b03908116825260208083019390935260409182016000908120918c1681529252902054906123e4565b6040805160a081018252308082526001600160a01b037f00000000000000000000000000000000000000000000000000000000000000008116602084015282840191909152841515606083015283151560808301529151630b59d9a760e21b81526000927f00000000000000000000000000000000000000000000000000000000000000001691632d67669c916116a49190600401612bd6565b60206040518083038186803b1580156116bc57600080fd5b505afa1580156116d0573d6000803e3d6000fd5b505050506040513d601f19601f820116820180604052508101906116f491906129d6565b905061135a838383611ee0565b600061170e848484611ea8565b91507f00000000000000000000000000000000000000000000000000000000000000006001600160a01b031663e671be176040518060e00160405280306001600160a01b031681526020017f00000000000000000000000000000000000000000000000000000000000000006001600160a01b0316815260200187151581526020018615158152602001858152602001866117ab576000196117ae565b60005b81526020016000198152506040518263ffffffff1660e01b81526004016117d59190612c7c565b602060405180830381600087803b1580156117ef57600080fd5b505af1158015611485573d6000803e3d6000fd5b336001600160a01b0385161461181e5761181e84338461243e565b6118288483612488565b61183181612584565b836001600160a01b0316836001600160a01b0316336001600160a01b03167ffbde797d201c681b91056529119e0b02407c7bb96a4a2c75c01fc9667232c8db8486604051611880929190612cd7565b60405180910390a450505050565b33306118bc7f000000000000000000000000000000000000000000000000000000000000000083838661260d565b7f00000000000000000000000000000000000000000000000000000000000000006001600160a01b03161561196a57604051632e1a7d4d60e01b81526001600160a01b037f00000000000000000000000000000000000000000000000000000000000000001690632e1a7d4d90611937908690600401612ac4565b600060405180830381600087803b15801561195157600080fd5b505af1158015611965573d6000803e3d6000fd5b505050505b505050565b611978836120f9565b600061198660008085611701565b90508381146119a75760405162461bcd60e51b815260040161097790612b57565b6119b182846122f2565b816001600160a01b0316336001600160a01b03167fdcbc1c05240f31ff3ad067ef1ee35ce4997762752e3a095284754544f4c709d786866040516119f6929190612cd7565b60405180910390a350505050565b6000611375611a11611db8565b8461153685604051806060016040528060258152602001612e726025913960026000611a3b611db8565b6001600160a01b03908116825260208083019390935260409182016000908120918d16815292529020549190612062565b6000611375611a79611db8565b8484611f05565b7f00000000000000000000000000000000000000000000000000000000000000006001600160a01b031615611b24577f00000000000000000000000000000000000000000000000000000000000000006001600160a01b031663d0e30db0826040518263ffffffff1660e01b81526004016000604051808303818588803b158015611b0a57600080fd5b505af1158015611b1e573d6000803e3d6000fd5b50505050505b611b4f7f00000000000000000000000000000000000000000000000000000000000000008383612667565b5050565b60006108bc82601260ff16600a0a7f00000000000000000000000000000000000000000000000000000000000000006001600160a01b031663313ce5676040518163ffffffff1660e01b815260040160206040518083038186803b158015611bba57600080fd5b505afa158015611bce573d6000803e3d6000fd5b505050506040513d601f19601f82011682018060405250810190611bf29190612a6b565b60ff16600a0a6112b1565b600080611c0b858585611ea8565b92507f00000000000000000000000000000000000000000000000000000000000000006001600160a01b031663cffe85566040518060e00160405280306001600160a01b031681526020017f00000000000000000000000000000000000000000000000000000000000000006001600160a01b03168152602001306001600160a01b031681526020018815158152602001871515815260200186815260200187611cb757600019611cba565b60005b8152506040518263ffffffff1660e01b8152600401611cd99190612c1f565b60206040518083038186803b158015611cf157600080fd5b505afa925050508015611d21575060408051601f3d908101601f19168201909252611d1e918101906129d6565b60015b611d2a57611d3d565b60019250611d39868683611ee0565b9150505b935093915050565b6000818310611d54578161135a565b5090919050565b600082821115611db2576040805162461bcd60e51b815260206004820152601e60248201527f536166654d6174683a207375627472616374696f6e206f766572666c6f770000604482015290519081900360640190fd5b50900390565b3390565b6001600160a01b038316611e015760405162461bcd60e51b8152600401808060200182810382526024815260200180612e246024913960400191505060405180910390fd5b6001600160a01b038216611e465760405162461bcd60e51b8152600401808060200182810382526022815260200180612d6e6022913960400191505060405180910390fd5b6001600160a01b03808416600081815260026020908152604080832094871680845294825291829020859055815185815291517f8c5be1e5ebec7d5bd14f71427d1e84f3dd0314c0f7b2291e5b200ac8c7c3b9259281900390910190a3505050565b60008315611eca5782611ec557611ebe82611b53565b905061135a565b611ed9565b8215611ed957611ebe82611b53565b5092915050565b60008315611ef7578215611ec557611ebe8261120a565b82611ed957611ebe8261120a565b6001600160a01b038316611f4a5760405162461bcd60e51b8152600401808060200182810382526025815260200180612dff6025913960400191505060405180910390fd5b6001600160a01b038216611f8f5760405162461bcd60e51b8152600401808060200182810382526023815260200180612d096023913960400191505060405180910390fd5b611f9a83838361196a565b611fd781604051806060016040528060268152602001612d90602691396001600160a01b0386166000908152600160205260409020549190612062565b6001600160a01b03808516600090815260016020526040808220939093559084168152205461200690826123e4565b6001600160a01b0380841660008181526001602090815260409182902094909455805185815290519193928716927fddf252ad1be2c89b69c2b068fc378daa952ba7f163c4a11628f55a4df523b3ef92918290030190a3505050565b600081848411156120f15760405162461bcd60e51b81526004018080602001828103825283818151815260200191508051906020019080838360005b838110156120b657818101518382015260200161209e565b50505050905090810190601f1680156120e35780820380516001836020036101000a031916815260200191505b509250505060405180910390fd5b505050900390565b7f00000000000000000000000000000000000000000000000000000000000000006001600160a01b031661226d5760405163095ea7b360e01b81526001600160a01b037f0000000000000000000000000000000000000000000000000000000000000000169063095ea7b390612197907f00000000000000000000000000000000000000000000000000000000000000009060001990600401612aa0565b602060405180830381600087803b1580156121b157600080fd5b505af11580156121c5573d6000803e3d6000fd5b505050506040513d601f19601f820116820180604052508101906121e991906129b6565b5060405163b6b55f2560e01b81526001600160a01b037f0000000000000000000000000000000000000000000000000000000000000000169063b6b55f2590612236908490600401612ac4565b600060405180830381600087803b15801561225057600080fd5b505af1158015612264573d6000803e3d6000fd5b505050506122ef565b60405163b6b55f2560e01b81526001600160a01b037f0000000000000000000000000000000000000000000000000000000000000000169063b6b55f259083906122bc90600090600401612ac4565b6000604051808303818588803b1580156122d557600080fd5b505af11580156122e9573d6000803e3d6000fd5b50505050505b50565b6001600160a01b03821661234d576040805162461bcd60e51b815260206004820152601f60248201527f45524332303a206d696e7420746f20746865207a65726f206164647265737300604482015290519081900360640190fd5b6123596000838361196a565b60035461236690826123e4565b6003556001600160a01b03821660009081526001602052604090205461238c90826123e4565b6001600160a01b03831660008181526001602090815260408083209490945583518581529351929391927fddf252ad1be2c89b69c2b068fc378daa952ba7f163c4a11628f55a4df523b3ef9281900390910190a35050565b60008282018381101561135a576040805162461bcd60e51b815260206004820152601b60248201527f536166654d6174683a206164646974696f6e206f766572666c6f770000000000604482015290519081900360640190fd5b600061244a84846111d0565b9050600019811461248257808211156124755760405162461bcd60e51b815260040161097790612b8e565b6124828484848403611dbc565b50505050565b6001600160a01b0382166124cd5760405162461bcd60e51b8152600401808060200182810382526021815260200180612dde6021913960400191505060405180910390fd5b6124d98260008361196a565b61251681604051806060016040528060228152602001612d4c602291396001600160a01b0385166000908152600160205260409020549190612062565b6001600160a01b03831660009081526001602052604090205560035461253c9082611d5b565b6003556040805182815290516000916001600160a01b038516917fddf252ad1be2c89b69c2b068fc378daa952ba7f163c4a11628f55a4df523b3ef9181900360200190a35050565b7f00000000000000000000000000000000000000000000000000000000000000006001600160a01b0316632e1a7d4d6125bc83611b53565b6040518263ffffffff1660e01b81526004016125d89190612ac4565b600060405180830381600087803b1580156125f257600080fd5b505af1158015612606573d6000803e3d6000fd5b5050505050565b604080516001600160a01b0380861660248301528416604482015260648082018490528251808303909101815260849091019091526020810180516001600160e01b03166323b872dd60e01b1790526124829085906126b5565b604080516001600160a01b038416602482015260448082018490528251808303909101815260649091019091526020810180516001600160e01b031663a9059cbb60e01b17905261196a9084905b600061270a826040518060400160405280602081526020017f5361666545524332303a206c6f772d6c6576656c2063616c6c206661696c6564815250856001600160a01b03166127669092919063ffffffff16565b80519091501561196a5780806020019051602081101561272957600080fd5b505161196a5760405162461bcd60e51b815260040180806020018281038252602a815260200180612e48602a913960400191505060405180910390fd5b60606114b684846000858561277a8561288b565b6127cb576040805162461bcd60e51b815260206004820152601d60248201527f416464726573733a2063616c6c20746f206e6f6e2d636f6e7472616374000000604482015290519081900360640190fd5b600080866001600160a01b031685876040518082805190602001908083835b602083106128095780518252601f1990920191602091820191016127ea565b6001836020036101000a03801982511681845116808217855250505050505090500191505060006040518083038185875af1925050503d806000811461286b576040519150601f19603f3d011682016040523d82523d6000602084013e612870565b606091505b5091509150612880828286612891565b979650505050505050565b3b151590565b606083156128a057508161135a565b8251156128b05782518084602001fd5b60405162461bcd60e51b81526020600482018181528451602484015284518593919283926044019190850190808383600083156120b657818101518382015260200161209e565b600060208284031215612908578081fd5b813561135a81612cf3565b60008060408385031215612925578081fd5b823561293081612cf3565b9150602083013561294081612cf3565b809150509250929050565b60008060006060848603121561295f578081fd5b833561296a81612cf3565b9250602084013561297a81612cf3565b929592945050506040919091013590565b6000806040838503121561299d578182fd5b82356129a881612cf3565b946020939093013593505050565b6000602082840312156129c7578081fd5b8151801515811461135a578182fd5b6000602082840312156129e7578081fd5b5051919050565b6000602082840312156129ff578081fd5b5035919050565b60008060408385031215612a18578182fd5b82359150602083013561294081612cf3565b600080600060608486031215612a3e578283fd5b833592506020840135612a5081612cf3565b91506040840135612a6081612cf3565b809150509250925092565b600060208284031215612a7c578081fd5b815160ff8116811461135a578182fd5b6001600160a01b0391909116815260200190565b6001600160a01b03929092168252602082015260400190565b901515815260200190565b90815260200190565b6000602080835283518082850152825b81811015612af957858101830151858201604001528201612add565b81811115612b0a5783604083870101525b50601f01601f1916929092016040019392505050565b6020808252601d908201527f5054425f4f573a2077657468206973206e6f7420617661696c61626c65000000604082015260600190565b60208082526019908201527f504c545f4d3a20286e657665722072656163682920414e465500000000000000604082015260600190565b60208082526028908201527f45524332303a207472616e7366657220616d6f756e74206578636565647320616040820152676c6c6f77616e636560c01b606082015260800190565b81516001600160a01b0390811682526020808401518216908301526040808401519091169082015260608083015115159082015260809182015115159181019190915260a00190565b81516001600160a01b0390811682526020808401518216908301526040808401519091169082015260608083015115159082015260808083015115159082015260a0828101519082015260c0918201519181019190915260e00190565b81516001600160a01b039081168252602080840151909116908201526040808301511515908201526060808301511515908201526080808301519082015260a0828101519082015260c0918201519181019190915260e00190565b918252602082015260400190565b60ff91909116815260200190565b6001600160a01b03811681146122ef57600080fdfe45524332303a207472616e7366657220746f20746865207a65726f20616464726573735265656e7472616e637947756172643a207265656e7472616e742063616c6c0045524332303a206275726e20616d6f756e7420657863656564732062616c616e636545524332303a20617070726f766520746f20746865207a65726f206164647265737345524332303a207472616e7366657220616d6f756e7420657863656564732062616c616e636545524332303a207472616e7366657220616d6f756e74206578636565647320616c6c6f77616e636545524332303a206275726e2066726f6d20746865207a65726f206164647265737345524332303a207472616e736665722066726f6d20746865207a65726f206164647265737345524332303a20617070726f76652066726f6d20746865207a65726f20616464726573735361666545524332303a204552433230206f7065726174696f6e20646964206e6f74207375636365656445524332303a2064656372656173656420616c6c6f77616e63652062656c6f77207a65726fa26469706673582212208fb225f4922caf6c90cc312ea3f32a4b1cf89735daf38a1e38e3dffee403c9ab64736f6c63430007060033",
  "devdoc": {
    "kind": "dev",
    "methods": {
      "allowance(address,address)": {
        "details": "See {IERC20-allowance}."
      },
      "approve(address,uint256)": {
        "details": "See {IERC20-approve}. Requirements: - `spender` cannot be the zero address."
      },
      "balanceOf(address)": {
        "details": "See {IERC20-balanceOf}."
      },
      "decimals()": {
        "details": "Returns the number of decimals used to get its user representation. For example, if `decimals` equals `2`, a balance of `505` tokens should be displayed to a user as `5,05` (`505 / 10 ** 2`). Tokens usually opt for a value of 18, imitating the relationship between Ether and Wei. This is the value {ERC20} uses, unless {_setupDecimals} is called. NOTE: This information is only used for _display_ purposes: it in no way affects any of the arithmetic of the contract, including {IERC20-balanceOf} and {IERC20-transfer}."
      },
      "decreaseAllowance(address,uint256)": {
        "details": "Atomically decreases the allowance granted to `spender` by the caller. This is an alternative to {approve} that can be used as a mitigation for problems described in {IERC20-approve}. Emits an {Approval} event indicating the updated allowance. Requirements: - `spender` cannot be the zero address. - `spender` must have allowance for the caller of at least `subtractedValue`."
      },
      "increaseAllowance(address,uint256)": {
        "details": "Atomically increases the allowance granted to `spender` by the caller. This is an alternative to {approve} that can be used as a mitigation for problems described in {IERC20-approve}. Emits an {Approval} event indicating the updated allowance. Requirements: - `spender` cannot be the zero address."
      },
      "name()": {
        "details": "Returns the name of the token."
      },
      "symbol()": {
        "details": "Returns the symbol of the token, usually a shorter version of the name."
      },
      "totalSupply()": {
        "details": "See {IERC20-totalSupply}."
      },
      "transfer(address,uint256)": {
        "details": "See {IERC20-transfer}. Requirements: - `recipient` cannot be the zero address. - the caller must have a balance of at least `amount`."
      },
      "transferFrom(address,address,uint256)": {
        "details": "See {IERC20-transferFrom}. Emits an {Approval} event indicating the updated allowance. This is not required by the EIP. See the note at the beginning of {ERC20}. Requirements: - `sender` and `recipient` cannot be the zero address. - `sender` must have a balance of at least `amount`. - the caller must have allowance for ``sender``'s tokens of at least `amount`."
      }
    },
    "version": 1
  },
  "userdoc": {
    "kind": "user",
    "methods": {},
    "version": 1
  },
  "storageLayout": {
    "storage": [
      {
        "astId": 3005,
        "contract": "contracts/PerpdexLongToken.sol:PerpdexLongToken",
        "label": "_status",
        "offset": 0,
        "slot": "0",
        "type": "t_uint256"
      },
      {
        "astId": 1218,
        "contract": "contracts/PerpdexLongToken.sol:PerpdexLongToken",
        "label": "_balances",
        "offset": 0,
        "slot": "1",
        "type": "t_mapping(t_address,t_uint256)"
      },
      {
        "astId": 1224,
        "contract": "contracts/PerpdexLongToken.sol:PerpdexLongToken",
        "label": "_allowances",
        "offset": 0,
        "slot": "2",
        "type": "t_mapping(t_address,t_mapping(t_address,t_uint256))"
      },
      {
        "astId": 1226,
        "contract": "contracts/PerpdexLongToken.sol:PerpdexLongToken",
        "label": "_totalSupply",
        "offset": 0,
        "slot": "3",
        "type": "t_uint256"
      },
      {
        "astId": 1228,
        "contract": "contracts/PerpdexLongToken.sol:PerpdexLongToken",
        "label": "_name",
        "offset": 0,
        "slot": "4",
        "type": "t_string_storage"
      },
      {
        "astId": 1230,
        "contract": "contracts/PerpdexLongToken.sol:PerpdexLongToken",
        "label": "_symbol",
        "offset": 0,
        "slot": "5",
        "type": "t_string_storage"
      },
      {
        "astId": 1232,
        "contract": "contracts/PerpdexLongToken.sol:PerpdexLongToken",
        "label": "_decimals",
        "offset": 0,
        "slot": "6",
        "type": "t_uint8"
      }
    ],
    "types": {
      "t_address": {
        "encoding": "inplace",
        "label": "address",
        "numberOfBytes": "20"
      },
      "t_mapping(t_address,t_mapping(t_address,t_uint256))": {
        "encoding": "mapping",
        "key": "t_address",
        "label": "mapping(address => mapping(address => uint256))",
        "numberOfBytes": "32",
        "value": "t_mapping(t_address,t_uint256)"
      },
      "t_mapping(t_address,t_uint256)": {
        "encoding": "mapping",
        "key": "t_address",
        "label": "mapping(address => uint256)",
        "numberOfBytes": "32",
        "value": "t_uint256"
      },
      "t_string_storage": {
        "encoding": "bytes",
        "label": "string",
        "numberOfBytes": "32"
      },
      "t_uint256": {
        "encoding": "inplace",
        "label": "uint256",
        "numberOfBytes": "32"
      },
      "t_uint8": {
        "encoding": "inplace",
        "label": "uint8",
        "numberOfBytes": "1"
      }
    }
  }
}