{
  "address": "0x530F00c8877deE52b30fc87BcAdE597fc6e269eb",
  "abi": [
    {
      "inputs": [
        {
          "internalType": "address",
          "name": "marketArg",
          "type": "address"
        },
        {
          "internalType": "address",
          "name": "wethArg",
          "type": "address"
        },
        {
          "internalType": "string",
          "name": "nativeTokenSymbol",
          "type": "string"
        }
      ],
      "stateMutability": "nonpayable",
      "type": "constructor"
    },
    {
      "inputs": [
        {
          "internalType": "uint256",
          "name": "prod1",
          "type": "uint256"
        },
        {
          "internalType": "uint256",
          "name": "denominator",
          "type": "uint256"
        }
      ],
      "name": "PRBMath__MulDivOverflow",
      "type": "error"
    },
    {
      "anonymous": false,
      "inputs": [
        {
          "indexed": true,
          "internalType": "address",
          "name": "owner",
          "type": "address"
        },
        {
          "indexed": true,
          "internalType": "address",
          "name": "spender",
          "type": "address"
        },
        {
          "indexed": false,
          "internalType": "uint256",
          "name": "value",
          "type": "uint256"
        }
      ],
      "name": "Approval",
      "type": "event"
    },
    {
      "anonymous": false,
      "inputs": [
        {
          "indexed": true,
          "internalType": "address",
          "name": "caller",
          "type": "address"
        },
        {
          "indexed": true,
          "internalType": "address",
          "name": "owner",
          "type": "address"
        },
        {
          "indexed": false,
          "internalType": "uint256",
          "name": "assets",
          "type": "uint256"
        },
        {
          "indexed": false,
          "internalType": "uint256",
          "name": "shares",
          "type": "uint256"
        }
      ],
      "name": "Deposit",
      "type": "event"
    },
    {
      "anonymous": false,
      "inputs": [
        {
          "indexed": true,
          "internalType": "address",
          "name": "from",
          "type": "address"
        },
        {
          "indexed": true,
          "internalType": "address",
          "name": "to",
          "type": "address"
        },
        {
          "indexed": false,
          "internalType": "uint256",
          "name": "value",
          "type": "uint256"
        }
      ],
      "name": "Transfer",
      "type": "event"
    },
    {
      "anonymous": false,
      "inputs": [
        {
          "indexed": true,
          "internalType": "address",
          "name": "caller",
          "type": "address"
        },
        {
          "indexed": true,
          "internalType": "address",
          "name": "receiver",
          "type": "address"
        },
        {
          "indexed": true,
          "internalType": "address",
          "name": "owner",
          "type": "address"
        },
        {
          "indexed": false,
          "internalType": "uint256",
          "name": "assets",
          "type": "uint256"
        },
        {
          "indexed": false,
          "internalType": "uint256",
          "name": "shares",
          "type": "uint256"
        }
      ],
      "name": "Withdraw",
      "type": "event"
    },
    {
      "inputs": [
        {
          "internalType": "address",
          "name": "owner",
          "type": "address"
        },
        {
          "internalType": "address",
          "name": "spender",
          "type": "address"
        }
      ],
      "name": "allowance",
      "outputs": [
        {
          "internalType": "uint256",
          "name": "",
          "type": "uint256"
        }
      ],
      "stateMutability": "view",
      "type": "function"
    },
    {
      "inputs": [
        {
          "internalType": "address",
          "name": "spender",
          "type": "address"
        },
        {
          "internalType": "uint256",
          "name": "amount",
          "type": "uint256"
        }
      ],
      "name": "approve",
      "outputs": [
        {
          "internalType": "bool",
          "name": "",
          "type": "bool"
        }
      ],
      "stateMutability": "nonpayable",
      "type": "function"
    },
    {
      "inputs": [],
      "name": "asset",
      "outputs": [
        {
          "internalType": "address",
          "name": "",
          "type": "address"
        }
      ],
      "stateMutability": "view",
      "type": "function"
    },
    {
      "inputs": [
        {
          "internalType": "address",
          "name": "account",
          "type": "address"
        }
      ],
      "name": "balanceOf",
      "outputs": [
        {
          "internalType": "uint256",
          "name": "",
          "type": "uint256"
        }
      ],
      "stateMutability": "view",
      "type": "function"
    },
    {
      "inputs": [
        {
          "internalType": "uint256",
          "name": "shares",
          "type": "uint256"
        }
      ],
      "name": "convertToAssets",
      "outputs": [
        {
          "internalType": "uint256",
          "name": "assets",
          "type": "uint256"
        }
      ],
      "stateMutability": "view",
      "type": "function"
    },
    {
      "inputs": [
        {
          "internalType": "uint256",
          "name": "assets",
          "type": "uint256"
        }
      ],
      "name": "convertToShares",
      "outputs": [
        {
          "internalType": "uint256",
          "name": "shares",
          "type": "uint256"
        }
      ],
      "stateMutability": "view",
      "type": "function"
    },
    {
      "inputs": [],
      "name": "decimals",
      "outputs": [
        {
          "internalType": "uint8",
          "name": "",
          "type": "uint8"
        }
      ],
      "stateMutability": "view",
      "type": "function"
    },
    {
      "inputs": [
        {
          "internalType": "address",
          "name": "spender",
          "type": "address"
        },
        {
          "internalType": "uint256",
          "name": "subtractedValue",
          "type": "uint256"
        }
      ],
      "name": "decreaseAllowance",
      "outputs": [
        {
          "internalType": "bool",
          "name": "",
          "type": "bool"
        }
      ],
      "stateMutability": "nonpayable",
      "type": "function"
    },
    {
      "inputs": [
        {
          "internalType": "uint256",
          "name": "assets",
          "type": "uint256"
        },
        {
          "internalType": "address",
          "name": "receiver",
          "type": "address"
        }
      ],
      "name": "deposit",
      "outputs": [
        {
          "internalType": "uint256",
          "name": "shares",
          "type": "uint256"
        }
      ],
      "stateMutability": "nonpayable",
      "type": "function"
    },
    {
      "inputs": [
        {
          "internalType": "address",
          "name": "receiver",
          "type": "address"
        }
      ],
      "name": "depositETH",
      "outputs": [
        {
          "internalType": "uint256",
          "name": "",
          "type": "uint256"
        }
      ],
      "stateMutability": "payable",
      "type": "function"
    },
    {
      "inputs": [],
      "name": "exchange",
      "outputs": [
        {
          "internalType": "address",
          "name": "",
          "type": "address"
        }
      ],
      "stateMutability": "view",
      "type": "function"
    },
    {
      "inputs": [
        {
          "internalType": "address",
          "name": "spender",
          "type": "address"
        },
        {
          "internalType": "uint256",
          "name": "addedValue",
          "type": "uint256"
        }
      ],
      "name": "increaseAllowance",
      "outputs": [
        {
          "internalType": "bool",
          "name": "",
          "type": "bool"
        }
      ],
      "stateMutability": "nonpayable",
      "type": "function"
    },
    {
      "inputs": [],
      "name": "market",
      "outputs": [
        {
          "internalType": "address",
          "name": "",
          "type": "address"
        }
      ],
      "stateMutability": "view",
      "type": "function"
    },
    {
      "inputs": [
        {
          "internalType": "address",
          "name": "",
          "type": "address"
        }
      ],
      "name": "maxDeposit",
      "outputs": [
        {
          "internalType": "uint256",
          "name": "maxAssets",
          "type": "uint256"
        }
      ],
      "stateMutability": "view",
      "type": "function"
    },
    {
      "inputs": [
        {
          "internalType": "address",
          "name": "",
          "type": "address"
        }
      ],
      "name": "maxMint",
      "outputs": [
        {
          "internalType": "uint256",
          "name": "maxShares",
          "type": "uint256"
        }
      ],
      "stateMutability": "view",
      "type": "function"
    },
    {
      "inputs": [
        {
          "internalType": "address",
          "name": "owner",
          "type": "address"
        }
      ],
      "name": "maxRedeem",
      "outputs": [
        {
          "internalType": "uint256",
          "name": "maxShares",
          "type": "uint256"
        }
      ],
      "stateMutability": "view",
      "type": "function"
    },
    {
      "inputs": [
        {
          "internalType": "address",
          "name": "owner",
          "type": "address"
        }
      ],
      "name": "maxWithdraw",
      "outputs": [
        {
          "internalType": "uint256",
          "name": "maxAssets",
          "type": "uint256"
        }
      ],
      "stateMutability": "view",
      "type": "function"
    },
    {
      "inputs": [
        {
          "internalType": "uint256",
          "name": "shares",
          "type": "uint256"
        },
        {
          "internalType": "address",
          "name": "receiver",
          "type": "address"
        }
      ],
      "name": "mint",
      "outputs": [
        {
          "internalType": "uint256",
          "name": "assets",
          "type": "uint256"
        }
      ],
      "stateMutability": "nonpayable",
      "type": "function"
    },
    {
      "inputs": [
        {
          "internalType": "uint256",
          "name": "shares",
          "type": "uint256"
        },
        {
          "internalType": "address",
          "name": "receiver",
          "type": "address"
        }
      ],
      "name": "mintETH",
      "outputs": [
        {
          "internalType": "uint256",
          "name": "assets",
          "type": "uint256"
        }
      ],
      "stateMutability": "payable",
      "type": "function"
    },
    {
      "inputs": [],
      "name": "name",
      "outputs": [
        {
          "internalType": "string",
          "name": "",
          "type": "string"
        }
      ],
      "stateMutability": "view",
      "type": "function"
    },
    {
      "inputs": [
        {
          "internalType": "uint256",
          "name": "assets",
          "type": "uint256"
        }
      ],
      "name": "previewDeposit",
      "outputs": [
        {
          "internalType": "uint256",
          "name": "shares",
          "type": "uint256"
        }
      ],
      "stateMutability": "view",
      "type": "function"
    },
    {
      "inputs": [
        {
          "internalType": "uint256",
          "name": "shares",
          "type": "uint256"
        }
      ],
      "name": "previewMint",
      "outputs": [
        {
          "internalType": "uint256",
          "name": "assets",
          "type": "uint256"
        }
      ],
      "stateMutability": "view",
      "type": "function"
    },
    {
      "inputs": [
        {
          "internalType": "uint256",
          "name": "shares",
          "type": "uint256"
        }
      ],
      "name": "previewRedeem",
      "outputs": [
        {
          "internalType": "uint256",
          "name": "assets",
          "type": "uint256"
        }
      ],
      "stateMutability": "view",
      "type": "function"
    },
    {
      "inputs": [
        {
          "internalType": "uint256",
          "name": "assets",
          "type": "uint256"
        }
      ],
      "name": "previewWithdraw",
      "outputs": [
        {
          "internalType": "uint256",
          "name": "shares",
          "type": "uint256"
        }
      ],
      "stateMutability": "view",
      "type": "function"
    },
    {
      "inputs": [
        {
          "internalType": "uint256",
          "name": "shares",
          "type": "uint256"
        },
        {
          "internalType": "address",
          "name": "receiver",
          "type": "address"
        },
        {
          "internalType": "address",
          "name": "owner",
          "type": "address"
        }
      ],
      "name": "redeem",
      "outputs": [
        {
          "internalType": "uint256",
          "name": "assets",
          "type": "uint256"
        }
      ],
      "stateMutability": "nonpayable",
      "type": "function"
    },
    {
      "inputs": [
        {
          "internalType": "uint256",
          "name": "shares",
          "type": "uint256"
        },
        {
          "internalType": "address payable",
          "name": "receiver",
          "type": "address"
        },
        {
          "internalType": "address",
          "name": "owner",
          "type": "address"
        }
      ],
      "name": "redeemETH",
      "outputs": [
        {
          "internalType": "uint256",
          "name": "assets",
          "type": "uint256"
        }
      ],
      "stateMutability": "nonpayable",
      "type": "function"
    },
    {
      "inputs": [],
      "name": "symbol",
      "outputs": [
        {
          "internalType": "string",
          "name": "",
          "type": "string"
        }
      ],
      "stateMutability": "view",
      "type": "function"
    },
    {
      "inputs": [],
      "name": "totalAssets",
      "outputs": [
        {
          "internalType": "uint256",
          "name": "totalManagedAssets",
          "type": "uint256"
        }
      ],
      "stateMutability": "view",
      "type": "function"
    },
    {
      "inputs": [],
      "name": "totalSupply",
      "outputs": [
        {
          "internalType": "uint256",
          "name": "",
          "type": "uint256"
        }
      ],
      "stateMutability": "view",
      "type": "function"
    },
    {
      "inputs": [
        {
          "internalType": "address",
          "name": "recipient",
          "type": "address"
        },
        {
          "internalType": "uint256",
          "name": "amount",
          "type": "uint256"
        }
      ],
      "name": "transfer",
      "outputs": [
        {
          "internalType": "bool",
          "name": "",
          "type": "bool"
        }
      ],
      "stateMutability": "nonpayable",
      "type": "function"
    },
    {
      "inputs": [
        {
          "internalType": "address",
          "name": "sender",
          "type": "address"
        },
        {
          "internalType": "address",
          "name": "recipient",
          "type": "address"
        },
        {
          "internalType": "uint256",
          "name": "amount",
          "type": "uint256"
        }
      ],
      "name": "transferFrom",
      "outputs": [
        {
          "internalType": "bool",
          "name": "",
          "type": "bool"
        }
      ],
      "stateMutability": "nonpayable",
      "type": "function"
    },
    {
      "inputs": [],
      "name": "weth",
      "outputs": [
        {
          "internalType": "address",
          "name": "",
          "type": "address"
        }
      ],
      "stateMutability": "view",
      "type": "function"
    },
    {
      "inputs": [
        {
          "internalType": "uint256",
          "name": "assets",
          "type": "uint256"
        },
        {
          "internalType": "address",
          "name": "receiver",
          "type": "address"
        },
        {
          "internalType": "address",
          "name": "owner",
          "type": "address"
        }
      ],
      "name": "withdraw",
      "outputs": [
        {
          "internalType": "uint256",
          "name": "shares",
          "type": "uint256"
        }
      ],
      "stateMutability": "nonpayable",
      "type": "function"
    },
    {
      "inputs": [
        {
          "internalType": "uint256",
          "name": "assets",
          "type": "uint256"
        },
        {
          "internalType": "address payable",
          "name": "receiver",
          "type": "address"
        },
        {
          "internalType": "address",
          "name": "owner",
          "type": "address"
        }
      ],
      "name": "withdrawETH",
      "outputs": [
        {
          "internalType": "uint256",
          "name": "shares",
          "type": "uint256"
        }
      ],
      "stateMutability": "nonpayable",
      "type": "function"
    },
    {
      "stateMutability": "payable",
      "type": "receive"
    }
  ],
  "transactionHash": "0x40b7738aa492398e98d2d46def781075b4407f95d8fb2d339182bbda18c8dd91",
  "args": [
    "0xdf9b68cf2630FA451EE6C17A4a6Ec83F8B7431A0",
    "0xbC6F6b680bc61e30dB47721c6D1c5cde19C1300d",
    "ETH"
  ],
  "numDeployments": 1,
  "solcInputHash": "e79b3913c25fb2155d124a4b6c41973a",
  "bytecode": "0x6101006040523480156200001257600080fd5b50604051620033a5380380620033a58339810160408190526200003591620006dd565b826040518060400160405280600d81526020016c02832b9382222ac102637b7339609d1b815250604051806040016040528060028152602001611c1b60f21b81525083856200008c8585846200035960201b60201c565b6200009986858562000359565b60016000558151620000b390600490602085019062000540565b508051620000c990600590602084019062000540565b5050506000856001600160a01b031663d2f7265a6040518163ffffffff1660e01b8152600401602060405180830381865afa1580156200010d573d6000803e3d6000fd5b505050506040513d601f19601f8201168201806040525081019062000133919062000743565b90506000816001600160a01b0316637b9e618d6040518163ffffffff1660e01b8152600401602060405180830381865afa15801562000176573d6000803e3d6000fd5b505050506040513d601f19601f820116820180604052508101906200019c919062000743565b90506000601260ff16836001600160a01b0316633fd1e2bd6040518163ffffffff1660e01b8152600401602060405180830381865afa158015620001e4573d6000803e3d6000fd5b505050506040513d601f19601f820116820180604052508101906200020a919062000768565b60ff1614620002605760405162461bcd60e51b815260206004820152601760248201527f5054425f433a20696e76616c696420646563696d616c7300000000000000000060448201526064015b60405180910390fd5b6001600160a01b038216620002cf576001600160a01b038416620002c75760405162461bcd60e51b815260206004820152601760248201527f5054425f433a2077657468206973207265717569726564000000000000000000604482015260640162000257565b50826200032b565b6001600160a01b03841615620003285760405162461bcd60e51b815260206004820152601b60248201527f5054425f433a20776574682063616e206e6f7420626520757365640000000000604482015260640162000257565b50805b6001600160a01b0390811660805296871660a0525090851660e05290931660c0525062000853945050505050565b60606000846001600160a01b031663d2f7265a6040518163ffffffff1660e01b8152600401602060405180830381865afa1580156200039c573d6000803e3d6000fd5b505050506040513d601f19601f82011682018060405250810190620003c2919062000743565b6001600160a01b0316637b9e618d6040518163ffffffff1660e01b8152600401602060405180830381865afa15801562000400573d6000803e3d6000fd5b505050506040513d601f19601f8201168201806040525081019062000426919062000743565b905083856001600160a01b03166395d89b416040518163ffffffff1660e01b8152600401600060405180830381865afa15801562000468573d6000803e3d6000fd5b505050506040513d6000823e601f3d908101601f191682016040526200049291908101906200078d565b6001600160a01b038316156200051157826001600160a01b03166395d89b416040518163ffffffff1660e01b8152600401600060405180830381865afa158015620004e1573d6000803e3d6000fd5b505050506040513d6000823e601f3d908101601f191682016040526200050b91908101906200078d565b62000513565b845b6040516020016200052793929190620007cd565b6040516020818303038152906040529150509392505050565b8280546200054e9062000816565b90600052602060002090601f016020900481019282620005725760008555620005bd565b82601f106200058d57805160ff1916838001178555620005bd565b82800160010185558215620005bd579182015b82811115620005bd578251825591602001919060010190620005a0565b50620005cb929150620005cf565b5090565b5b80821115620005cb5760008155600101620005d0565b80516001600160a01b0381168114620005fe57600080fd5b919050565b634e487b7160e01b600052604160045260246000fd5b60005b83811015620006365781810151838201526020016200061c565b8381111562000646576000848401525b50505050565b600082601f8301126200065e57600080fd5b81516001600160401b03808211156200067b576200067b62000603565b604051601f8301601f19908116603f01168101908282118183101715620006a657620006a662000603565b81604052838152866020858801011115620006c057600080fd5b620006d384602083016020890162000619565b9695505050505050565b600080600060608486031215620006f357600080fd5b620006fe84620005e6565b92506200070e60208501620005e6565b60408501519092506001600160401b038111156200072b57600080fd5b62000739868287016200064c565b9150509250925092565b6000602082840312156200075657600080fd5b6200076182620005e6565b9392505050565b6000602082840312156200077b57600080fd5b815160ff811681146200076157600080fd5b600060208284031215620007a057600080fd5b81516001600160401b03811115620007b757600080fd5b620007c5848285016200064c565b949350505050565b60008451620007e181846020890162000619565b845190830190620007f781836020890162000619565b84519101906200080c81836020880162000619565b0195945050505050565b600181811c908216806200082b57607f821691505b602082108114156200084d57634e487b7160e01b600052602260045260246000fd5b50919050565b60805160a05160c05160e051612a4d62000958600039600081816103a50152818161095901528181610a2201528181610af301528181610e7e015281816116230152818161166601528181611819015281816118480152611eaf01526000818161062b015281816106cf0152818161114c015281816113ba015281816114430152818161199b01528181611ef201528181611fa60152818161202401526122bd0152600081816104af0152818161080e01528181610d8e015281816111950152818161133a0152818161148c01526119e401526000818161033901528181610fbf015281816115fa015281816118c0015281816118fe0152611f220152612a4d6000f3fe6080604052600436106101fd5760003560e01c806370a082311161010d578063ba087652116100a0578063cfc13da61161006f578063cfc13da614610606578063d2f7265a14610619578063d905777e1461064d578063dd62ed3e1461066d578063ef8b30f71461068d57600080fd5b8063ba08765214610586578063c63d75b6146105a6578063c6e6f592146105c6578063ce96cb77146105e657600080fd5b8063a457c2d7116100dc578063a457c2d714610506578063a9059cbb14610526578063b3d7f6b914610546578063b460af941461056657600080fd5b806370a082311461046757806380f556051461049d57806394bf804d146104d157806395d89b41146104f157600080fd5b8063313ce56711610190578063402d267d1161015f578063402d267d146103c75780634cdad506146103e757806367da598e146104075780636b6f5133146104275780636e553f651461044757600080fd5b8063313ce5671461030b57806338d52e0f1461032757806339509351146103735780633fc8cef31461039357600080fd5b80630a28a477116101cc5780630a28a477146102a357806318160ddd146102c357806323b872dd146102d85780632d2da806146102f857600080fd5b806301e1d1141461020957806306fdde031461023157806307a2d13a14610253578063095ea7b31461027357600080fd5b3661020457005b600080fd5b34801561021557600080fd5b5061021e6106ad565b6040519081526020015b60405180910390f35b34801561023d57600080fd5b5061024661075b565b60405161022891906125be565b34801561025f57600080fd5b5061021e61026e3660046125f1565b6107ed565b34801561027f57600080fd5b5061029361028e36600461261f565b6108b1565b6040519015158152602001610228565b3480156102af57600080fd5b5061021e6102be3660046125f1565b6108fc565b3480156102cf57600080fd5b5060035461021e565b3480156102e457600080fd5b506102936102f336600461264b565b610911565b61021e61030636600461268c565b610955565b34801561031757600080fd5b5060405160128152602001610228565b34801561033357600080fd5b5061035b7f000000000000000000000000000000000000000000000000000000000000000081565b6040516001600160a01b039091168152602001610228565b34801561037f57600080fd5b5061029361038e36600461261f565b6109cf565b34801561039f57600080fd5b5061035b7f000000000000000000000000000000000000000000000000000000000000000081565b3480156103d357600080fd5b5061021e6103e236600461268c565b610a03565b3480156103f357600080fd5b5061021e6104023660046125f1565b610a10565b34801561041357600080fd5b5061021e6104223660046126a9565b610a1e565b34801561043357600080fd5b5061021e6104423660046126a9565b610aef565b34801561045357600080fd5b5061021e6104623660046126eb565b610baf565b34801561047357600080fd5b5061021e61048236600461268c565b6001600160a01b031660009081526001602052604090205490565b3480156104a957600080fd5b5061035b7f000000000000000000000000000000000000000000000000000000000000000081565b3480156104dd57600080fd5b5061021e6104ec3660046126eb565b610bec565b3480156104fd57600080fd5b50610246610c35565b34801561051257600080fd5b5061029361052136600461261f565b610c44565b34801561053257600080fd5b5061029361054136600461261f565b610c78565b34801561055257600080fd5b5061021e6105613660046125f1565b610cac565b34801561057257600080fd5b5061021e6105813660046126a9565b610cba565b34801561059257600080fd5b5061021e6105a13660046126a9565b610d0c565b3480156105b257600080fd5b5061021e6105c136600461268c565b610d5a565b3480156105d257600080fd5b5061021e6105e13660046125f1565b610d68565b3480156105f257600080fd5b5061021e61060136600461268c565b610e20565b61021e6106143660046126eb565b610e7a565b34801561062557600080fd5b5061035b7f000000000000000000000000000000000000000000000000000000000000000081565b34801561065957600080fd5b5061021e61066836600461268c565b610f4f565b34801561067957600080fd5b5061021e61068836600461271b565b610f7d565b34801561069957600080fd5b5061021e6106a83660046125f1565b610fa8565b604051630674fa4160e01b815230600482015260009081906001600160a01b037f00000000000000000000000000000000000000000000000000000000000000001690630674fa4190602401602060405180830381865afa158015610716573d6000803e3d6000fd5b505050506040513d601f19601f8201168201806040525081019061073a9190612749565b9050600081126107525761074d81610fb7565b610755565b60005b91505090565b60606004805461076a90612762565b80601f016020809104026020016040519081016040528092919081815260200182805461079690612762565b80156107e35780601f106107b8576101008083540402835291602001916107e3565b820191906000526020600020905b8154815290600101906020018083116107c657829003601f168201915b5050505050905090565b6000806107f960035490565b90508061089f5761089861080c84610fb7565b7f00000000000000000000000000000000000000000000000000000000000000006001600160a01b0316638ee8fe5d6040518163ffffffff1660e01b8152600401602060405180830381865afa15801561086a573d6000803e3d6000fd5b505050506040513d601f19601f8201168201806040525081019061088e9190612749565b600160601b611056565b9392505050565b610898836108ab6106ad565b83611056565b6000600260005414156108df5760405162461bcd60e51b81526004016108d69061279d565b60405180910390fd5b60026000556108ee8383611123565b90505b600160005592915050565b600061090b600160008461113b565b92915050565b6000600260005414156109365760405162461bcd60e51b81526004016108d69061279d565b600260005561094684848461126c565b90505b60016000559392505050565b60007f00000000000000000000000000000000000000000000000000000000000000006001600160a01b031661099d5760405162461bcd60e51b81526004016108d6906127d4565b600260005414156109c05760405162461bcd60e51b81526004016108d69061279d565b60026000556108f13483611290565b6000600260005414156109f45760405162461bcd60e51b81526004016108d69061279d565b60026000556108ee8383611300565b600061090b600080611322565b600061090b6001808461113b565b60007f00000000000000000000000000000000000000000000000000000000000000006001600160a01b0316610a665760405162461bcd60e51b81526004016108d6906127d4565b60026000541415610a895760405162461bcd60e51b81526004016108d69061279d565b6002600081905550610a9e6001600086611432565b9050610aac82848387611574565b6040516001600160a01b0384169085156108fc029086906000818181858888f19350505050158015610ae2573d6000803e3d6000fd5b5060016000559392505050565b60007f00000000000000000000000000000000000000000000000000000000000000006001600160a01b0316610b375760405162461bcd60e51b81526004016108d6906127d4565b60026000541415610b5a5760405162461bcd60e51b81526004016108d69061279d565b6002600055610b6b60018086611432565b9050610b7982848684611574565b6040516001600160a01b0384169082156108fc029083906000818181858888f19350505050158015610ae2573d6000803e3d6000fd5b600060026000541415610bd45760405162461bcd60e51b81526004016108d69061279d565b6002600055610be2836115f3565b6108ee8383611290565b600060026000541415610c115760405162461bcd60e51b81526004016108d69061279d565b6002600055610c1f83610cac565b9050610c2a816115f3565b6108f18184846116d0565b60606005805461076a90612762565b600060026000541415610c695760405162461bcd60e51b81526004016108d69061279d565b60026000556108ee838361178e565b600060026000541415610c9d5760405162461bcd60e51b81526004016108d69061279d565b60026000556108ee8383611809565b600061090b6000808461113b565b600060026000541415610cdf5760405162461bcd60e51b81526004016108d69061279d565b6002600081905550610cf46001600086611432565b9050610d0282848387611574565b6109498385611817565b600060026000541415610d315760405162461bcd60e51b81526004016108d69061279d565b6002600055610d4260018086611432565b9050610d5082848684611574565b6109498382611817565b600061090b60006001611322565b600080610d7460035490565b905080610e1357610898610d87846118ea565b600160601b7f00000000000000000000000000000000000000000000000000000000000000006001600160a01b0316638ee8fe5d6040518163ffffffff1660e01b8152600401602060405180830381865afa158015610dea573d6000803e3d6000fd5b505050506040513d601f19601f82011682018060405250810190610e0e9190612749565b611056565b6108988382610e0e6106ad565b6000610e2d600180611322565b9050600080610e5c600180610e57876001600160a01b031660009081526001602052604090205490565b611989565b915091508115610e7357610e708382611ac2565b92505b5050919050565b60007f00000000000000000000000000000000000000000000000000000000000000006001600160a01b0316610ec25760405162461bcd60e51b81526004016108d6906127d4565b60026000541415610ee55760405162461bcd60e51b81526004016108d69061279d565b6002600055610ef383610cac565b90506000610f013483611ad8565b90508015610f3857604051339082156108fc029083906000818181858888f19350505050158015610f36573d6000803e3d6000fd5b505b610f438285856116d0565b50600160005592915050565b6001600160a01b03811660009081526001602052604081205461090b90610f7860016000611322565b611ac2565b6001600160a01b03918216600090815260026020908152604080832093909416825291909152205490565b600061090b600060018461113b565b600061090b827f00000000000000000000000000000000000000000000000000000000000000006001600160a01b031663313ce5676040518163ffffffff1660e01b8152600401602060405180830381865afa15801561101b573d6000803e3d6000fd5b505050506040513d601f19601f8201168201806040525081019061103f919061280b565b61104a90600a612928565b610e0e6012600a612928565b6000808060001985870985870292508281108382030391505080600014156110915783828161108757611087612937565b0492505050610898565b8381106110bb57604051631dcf306360e21b815260048101829052602481018590526044016108d6565b600084868809600260036001881981018916988990049182028318808302840302808302840302808302840302808302840302808302840302918202909203026000889003889004909101858311909403939093029303949094049190911702949350505050565b600033611131818585611ae4565b5060019392505050565b6000611148848484611c08565b91507f00000000000000000000000000000000000000000000000000000000000000006001600160a01b031663cffe85566040518060e00160405280306001600160a01b031681526020017f00000000000000000000000000000000000000000000000000000000000000006001600160a01b03168152602001306001600160a01b0316815260200187151581526020018615158152602001858152602001866111f4576000196111f7565b60005b8152506040518263ffffffff1660e01b8152600401611216919061294d565b602060405180830381865afa158015611233573d6000803e3d6000fd5b505050506040513d601f19601f820116820180604052508101906112579190612749565b9050611264848483611c40565b949350505050565b60003361127a858285611c65565b611285858585611cdf565b506001949350505050565b600061129b83611ead565b6112a86000600185611432565b90506112b4828261208e565b60408051848152602081018390526001600160a01b0384169133917fdcbc1c05240f31ff3ad067ef1ee35ce4997762752e3a095284754544f4c709d7910160405180910390a392915050565b6000336111318185856113138383610f7d565b61131d91906129aa565b611ae4565b6040805160a081018252308082526001600160a01b037f000000000000000000000000000000000000000000000000000000000000000081166020840190815283850192835286151560608501908152861515608086019081529551630b59d9a760e21b81529451831660048601529051821660248501529151811660448401529051151560648301529151151560848201526000917f00000000000000000000000000000000000000000000000000000000000000001690632d67669c9060a401602060405180830381865afa158015611401573d6000803e3d6000fd5b505050506040513d601f19601f820116820180604052508101906114259190612749565b9050610898838383611c40565b600061143f848484611c08565b91507f00000000000000000000000000000000000000000000000000000000000000006001600160a01b031663e671be176040518060e00160405280306001600160a01b031681526020017f00000000000000000000000000000000000000000000000000000000000000006001600160a01b0316815260200187151581526020018615158152602001858152602001866114dc576000196114df565b60005b8152600019602091820152604080516001600160e01b031960e086901b16815283516001600160a01b039081166004830152928401519092166024830152820151151560448201526060820151151560648201526080820151608482015260a082015160a482015260c09091015160c482015260e4016020604051808303816000875af1158015611233573d6000803e3d6000fd5b336001600160a01b0385161461158f5761158f843384611c65565b611599848361216d565b6115a2816122bb565b60408051828152602081018490526001600160a01b03808716929086169133917ffbde797d201c681b91056529119e0b02407c7bb96a4a2c75c01fc9667232c8db910160405180910390a450505050565b33306116217f0000000000000000000000000000000000000000000000000000000000000000838386612311565b7f00000000000000000000000000000000000000000000000000000000000000006001600160a01b0316156116cb57604051632e1a7d4d60e01b8152600481018490527f00000000000000000000000000000000000000000000000000000000000000006001600160a01b031690632e1a7d4d90602401600060405180830381600087803b1580156116b257600080fd5b505af11580156116c6573d6000803e3d6000fd5b505050505b505050565b6116d983611ead565b60006116e760008085611432565b90508381146117385760405162461bcd60e51b815260206004820152601960248201527f504c545f4d3a20286e657665722072656163682920414e46550000000000000060448201526064016108d6565b611742828461208e565b60408051858152602081018590526001600160a01b0384169133917fdcbc1c05240f31ff3ad067ef1ee35ce4997762752e3a095284754544f4c709d7910160405180910390a350505050565b6000338161179c8286610f7d565b9050838110156117fc5760405162461bcd60e51b815260206004820152602560248201527f45524332303a2064656372656173656420616c6c6f77616e63652062656c6f77604482015264207a65726f60d81b60648201526084016108d6565b6112858286868403611ae4565b600033611131818585611cdf565b7f00000000000000000000000000000000000000000000000000000000000000006001600160a01b0316156118bb577f00000000000000000000000000000000000000000000000000000000000000006001600160a01b031663d0e30db0826040518263ffffffff1660e01b81526004016000604051808303818588803b1580156118a157600080fd5b505af11580156118b5573d6000803e3d6000fd5b50505050505b6118e67f0000000000000000000000000000000000000000000000000000000000000000838361237c565b5050565b600061090b826118fc6012600a612928565b7f00000000000000000000000000000000000000000000000000000000000000006001600160a01b031663313ce5676040518163ffffffff1660e01b8152600401602060405180830381865afa15801561195a573d6000803e3d6000fd5b505050506040513d601f19601f8201168201806040525081019061197e919061280b565b610e0e90600a612928565b600080611997858585611c08565b92507f00000000000000000000000000000000000000000000000000000000000000006001600160a01b031663cffe85566040518060e00160405280306001600160a01b031681526020017f00000000000000000000000000000000000000000000000000000000000000006001600160a01b03168152602001306001600160a01b031681526020018815158152602001871515815260200186815260200187611a4357600019611a46565b60005b8152506040518263ffffffff1660e01b8152600401611a65919061294d565b602060405180830381865afa925050508015611a9e575060408051601f3d908101601f19168201909252611a9b91810190612749565b60015b611aa757611aba565b60019250611ab6868683611c40565b9150505b935093915050565b6000818310611ad15781610898565b5090919050565b600061089882846129c2565b6001600160a01b038316611b465760405162461bcd60e51b8152602060048201526024808201527f45524332303a20617070726f76652066726f6d20746865207a65726f206164646044820152637265737360e01b60648201526084016108d6565b6001600160a01b038216611ba75760405162461bcd60e51b815260206004820152602260248201527f45524332303a20617070726f766520746f20746865207a65726f206164647265604482015261737360f01b60648201526084016108d6565b6001600160a01b0383811660008181526002602090815260408083209487168084529482529182902085905590518481527f8c5be1e5ebec7d5bd14f71427d1e84f3dd0314c0f7b2291e5b200ac8c7c3b925910160405180910390a3505050565b60008315611c2a5782611c2557611c1e826118ea565b9050610898565b611c39565b8215611c3957611c1e826118ea565b5092915050565b60008315611c57578215611c2557611c1e82610fb7565b82611c3957611c1e82610fb7565b6000611c718484610f7d565b90506000198114611cd95781811015611ccc5760405162461bcd60e51b815260206004820152601d60248201527f45524332303a20696e73756666696369656e7420616c6c6f77616e636500000060448201526064016108d6565b611cd98484848403611ae4565b50505050565b6001600160a01b038316611d435760405162461bcd60e51b815260206004820152602560248201527f45524332303a207472616e736665722066726f6d20746865207a65726f206164604482015264647265737360d81b60648201526084016108d6565b6001600160a01b038216611da55760405162461bcd60e51b815260206004820152602360248201527f45524332303a207472616e7366657220746f20746865207a65726f206164647260448201526265737360e81b60648201526084016108d6565b6001600160a01b03831660009081526001602052604090205481811015611e1d5760405162461bcd60e51b815260206004820152602660248201527f45524332303a207472616e7366657220616d6f756e7420657863656564732062604482015265616c616e636560d01b60648201526084016108d6565b6001600160a01b03808516600090815260016020526040808220858503905591851681529081208054849290611e549084906129aa565b92505081905550826001600160a01b0316846001600160a01b03167fddf252ad1be2c89b69c2b068fc378daa952ba7f163c4a11628f55a4df523b3ef84604051611ea091815260200190565b60405180910390a3611cd9565b7f00000000000000000000000000000000000000000000000000000000000000006001600160a01b031661200e5760405163095ea7b360e01b81526001600160a01b037f00000000000000000000000000000000000000000000000000000000000000008116600483015260001960248301527f0000000000000000000000000000000000000000000000000000000000000000169063095ea7b3906044016020604051808303816000875af1158015611f6b573d6000803e3d6000fd5b505050506040513d601f19601f82011682018060405250810190611f8f91906129d9565b5060405163b6b55f2560e01b8152600481018290527f00000000000000000000000000000000000000000000000000000000000000006001600160a01b03169063b6b55f25906024015b600060405180830381600087803b158015611ff357600080fd5b505af1158015612007573d6000803e3d6000fd5b5050505050565b60405163b6b55f2560e01b8152600060048201527f00000000000000000000000000000000000000000000000000000000000000006001600160a01b03169063b6b55f259083906024016000604051808303818588803b15801561207157600080fd5b505af1158015612085573d6000803e3d6000fd5b50505050505b50565b6001600160a01b0382166120e45760405162461bcd60e51b815260206004820152601f60248201527f45524332303a206d696e7420746f20746865207a65726f20616464726573730060448201526064016108d6565b80600360008282546120f691906129aa565b90915550506001600160a01b038216600090815260016020526040812080548392906121239084906129aa565b90915550506040518181526001600160a01b038316906000907fddf252ad1be2c89b69c2b068fc378daa952ba7f163c4a11628f55a4df523b3ef9060200160405180910390a35050565b6001600160a01b0382166121cd5760405162461bcd60e51b815260206004820152602160248201527f45524332303a206275726e2066726f6d20746865207a65726f206164647265736044820152607360f81b60648201526084016108d6565b6001600160a01b038216600090815260016020526040902054818110156122415760405162461bcd60e51b815260206004820152602260248201527f45524332303a206275726e20616d6f756e7420657863656564732062616c616e604482015261636560f01b60648201526084016108d6565b6001600160a01b03831660009081526001602052604081208383039055600380548492906122709084906129c2565b90915550506040518281526000906001600160a01b038516907fddf252ad1be2c89b69c2b068fc378daa952ba7f163c4a11628f55a4df523b3ef9060200160405180910390a3505050565b7f00000000000000000000000000000000000000000000000000000000000000006001600160a01b0316632e1a7d4d6122f3836118ea565b6040518263ffffffff1660e01b8152600401611fd991815260200190565b6040516001600160a01b0380851660248301528316604482015260648101829052611cd99085906323b872dd60e01b906084015b60408051601f198184030181529190526020810180516001600160e01b03166001600160e01b0319909316929092179091526123ac565b6040516001600160a01b0383166024820152604481018290526116cb90849063a9059cbb60e01b90606401612345565b6000612401826040518060400160405280602081526020017f5361666545524332303a206c6f772d6c6576656c2063616c6c206661696c6564815250856001600160a01b031661247e9092919063ffffffff16565b8051909150156116cb578080602001905181019061241f91906129d9565b6116cb5760405162461bcd60e51b815260206004820152602a60248201527f5361666545524332303a204552433230206f7065726174696f6e20646964206e6044820152691bdd081cdd58d8d9595960b21b60648201526084016108d6565b60606112648484600085856001600160a01b0385163b6124e05760405162461bcd60e51b815260206004820152601d60248201527f416464726573733a2063616c6c20746f206e6f6e2d636f6e747261637400000060448201526064016108d6565b600080866001600160a01b031685876040516124fc91906129fb565b60006040518083038185875af1925050503d8060008114612539576040519150601f19603f3d011682016040523d82523d6000602084013e61253e565b606091505b509150915061254e828286612559565b979650505050505050565b60608315612568575081610898565b8251156125785782518084602001fd5b8160405162461bcd60e51b81526004016108d691906125be565b60005b838110156125ad578181015183820152602001612595565b83811115611cd95750506000910152565b60208152600082518060208401526125dd816040850160208701612592565b601f01601f19169190910160400192915050565b60006020828403121561260357600080fd5b5035919050565b6001600160a01b038116811461208b57600080fd5b6000806040838503121561263257600080fd5b823561263d8161260a565b946020939093013593505050565b60008060006060848603121561266057600080fd5b833561266b8161260a565b9250602084013561267b8161260a565b929592945050506040919091013590565b60006020828403121561269e57600080fd5b81356108988161260a565b6000806000606084860312156126be57600080fd5b8335925060208401356126d08161260a565b915060408401356126e08161260a565b809150509250925092565b600080604083850312156126fe57600080fd5b8235915060208301356127108161260a565b809150509250929050565b6000806040838503121561272e57600080fd5b82356127398161260a565b915060208301356127108161260a565b60006020828403121561275b57600080fd5b5051919050565b600181811c9082168061277657607f821691505b6020821081141561279757634e487b7160e01b600052602260045260246000fd5b50919050565b6020808252601f908201527f5265656e7472616e637947756172643a207265656e7472616e742063616c6c00604082015260600190565b6020808252601d908201527f5054425f4f573a2077657468206973206e6f7420617661696c61626c65000000604082015260600190565b60006020828403121561281d57600080fd5b815160ff8116811461089857600080fd5b634e487b7160e01b600052601160045260246000fd5b600181815b8085111561287f5781600019048211156128655761286561282e565b8085161561287257918102915b93841c9390800290612849565b509250929050565b6000826128965750600161090b565b816128a35750600061090b565b81600181146128b957600281146128c3576128df565b600191505061090b565b60ff8411156128d4576128d461282e565b50506001821b61090b565b5060208310610133831016604e8410600b8410161715612902575081810a61090b565b61290c8383612844565b80600019048211156129205761292061282e565b029392505050565b600061089860ff841683612887565b634e487b7160e01b600052601260045260246000fd5b81516001600160a01b0390811682526020808401518216908301526040808401519091169082015260608083015115159082015260808083015115159082015260a0828101519082015260c0918201519181019190915260e00190565b600082198211156129bd576129bd61282e565b500190565b6000828210156129d4576129d461282e565b500390565b6000602082840312156129eb57600080fd5b8151801515811461089857600080fd5b60008251612a0d818460208701612592565b919091019291505056fea264697066735822122053fa3396421d81d2b511c531c7e7b10a35adce485ae2ba25bbc9cb3db1dccd9f64736f6c634300080c0033",
  "devdoc": {
    "kind": "dev",
    "methods": {
      "allowance(address,address)": {
        "details": "See {IERC20-allowance}."
      },
      "approve(address,uint256)": {
        "details": "See {IERC20-approve}. NOTE: If `amount` is the maximum `uint256`, the allowance is not updated on `transferFrom`. This is semantically equivalent to an infinite approval. Requirements: - `spender` cannot be the zero address."
      },
      "balanceOf(address)": {
        "details": "See {IERC20-balanceOf}."
      },
      "decimals()": {
        "details": "Returns the number of decimals used to get its user representation. For example, if `decimals` equals `2`, a balance of `505` tokens should be displayed to a user as `5.05` (`505 / 10 ** 2`). Tokens usually opt for a value of 18, imitating the relationship between Ether and Wei. This is the value {ERC20} uses, unless this function is overridden; NOTE: This information is only used for _display_ purposes: it in no way affects any of the arithmetic of the contract, including {IERC20-balanceOf} and {IERC20-transfer}."
      },
      "decreaseAllowance(address,uint256)": {
        "details": "Atomically decreases the allowance granted to `spender` by the caller. This is an alternative to {approve} that can be used as a mitigation for problems described in {IERC20-approve}. Emits an {Approval} event indicating the updated allowance. Requirements: - `spender` cannot be the zero address. - `spender` must have allowance for the caller of at least `subtractedValue`."
      },
      "increaseAllowance(address,uint256)": {
        "details": "Atomically increases the allowance granted to `spender` by the caller. This is an alternative to {approve} that can be used as a mitigation for problems described in {IERC20-approve}. Emits an {Approval} event indicating the updated allowance. Requirements: - `spender` cannot be the zero address."
      },
      "name()": {
        "details": "Returns the name of the token."
      },
      "symbol()": {
        "details": "Returns the symbol of the token, usually a shorter version of the name."
      },
      "totalSupply()": {
        "details": "See {IERC20-totalSupply}."
      }
    },
    "version": 1
  },
  "userdoc": {
    "errors": {
      "PRBMath__MulDivOverflow(uint256,uint256)": [
        {
          "notice": "Emitted when the result overflows uint256."
        }
      ]
    },
    "kind": "user",
    "methods": {},
    "version": 1
  },
  "storageLayout": {
    "storage": [
      {
        "astId": 925,
        "contract": "contracts/PerpdexLongToken.sol:PerpdexLongToken",
        "label": "_status",
        "offset": 0,
        "slot": "0",
        "type": "t_uint256"
      },
      {
        "astId": 970,
        "contract": "contracts/PerpdexLongToken.sol:PerpdexLongToken",
        "label": "_balances",
        "offset": 0,
        "slot": "1",
        "type": "t_mapping(t_address,t_uint256)"
      },
      {
        "astId": 976,
        "contract": "contracts/PerpdexLongToken.sol:PerpdexLongToken",
        "label": "_allowances",
        "offset": 0,
        "slot": "2",
        "type": "t_mapping(t_address,t_mapping(t_address,t_uint256))"
      },
      {
        "astId": 978,
        "contract": "contracts/PerpdexLongToken.sol:PerpdexLongToken",
        "label": "_totalSupply",
        "offset": 0,
        "slot": "3",
        "type": "t_uint256"
      },
      {
        "astId": 980,
        "contract": "contracts/PerpdexLongToken.sol:PerpdexLongToken",
        "label": "_name",
        "offset": 0,
        "slot": "4",
        "type": "t_string_storage"
      },
      {
        "astId": 982,
        "contract": "contracts/PerpdexLongToken.sol:PerpdexLongToken",
        "label": "_symbol",
        "offset": 0,
        "slot": "5",
        "type": "t_string_storage"
      }
    ],
    "types": {
      "t_address": {
        "encoding": "inplace",
        "label": "address",
        "numberOfBytes": "20"
      },
      "t_mapping(t_address,t_mapping(t_address,t_uint256))": {
        "encoding": "mapping",
        "key": "t_address",
        "label": "mapping(address => mapping(address => uint256))",
        "numberOfBytes": "32",
        "value": "t_mapping(t_address,t_uint256)"
      },
      "t_mapping(t_address,t_uint256)": {
        "encoding": "mapping",
        "key": "t_address",
        "label": "mapping(address => uint256)",
        "numberOfBytes": "32",
        "value": "t_uint256"
      },
      "t_string_storage": {
        "encoding": "bytes",
        "label": "string",
        "numberOfBytes": "32"
      },
      "t_uint256": {
        "encoding": "inplace",
        "label": "uint256",
        "numberOfBytes": "32"
      }
    }
  }
}